:020000000F2AC5
:0E0006008312031323088A00220882000800D8
:1000140083120313FB01FA01F901F801A001730D26
:10002400F80D7408F8027508031C750FF9027608B8
:10003400031C760FFA027708031C770FFB020001FA
:10004400031C0130A002F30D0730FC00730DF80D02
:10005400F90DFA0DFB0DA00D7408731C4328F8026A
:100064007508031C750FF9027608031C760FFA0253
:100074007708031C770FFB020001031C0130A00268
:100084005428F80775080318750FF907760803183C
:10009400760FFA0777080318770FFB070001031898
:1000A4000130A007F30DFC0B2828720DF80DF90D93
:1000B400FA0DFB0DA00D7408731C7228F802750864
:1000C400031C750FF9027608031C760FFA027708F1
:1000D400031C770FFB020001031C0130A0028328DC
:1000E400F80775080318750FF90776080318760FD3
:1000F400FA0777080318770FFB070001031801308C
:10010400A007F20D0730FC00720DF80DF90DFA0D81
:10011400FB0DA00D7408721CA128F8027508031CBD
:10012400750FF9027608031C760FFA027708031C90
:10013400770FFB020001031C0130A002B228F8076C
:1001440075080318750FF90776080318760FFA0770
:1001540077080318770FFB07000103180130A00785
:10016400F20DFC0B8628710DF80DF90DFA0DFB0D3F
:10017400A00D7408721CD028F8027508031C750FB2
:10018400F9027608031C760FFA027708031C770F2E
:10019400FB020001031C0130A002E128F8077508E6
:1001A4000318750FF90776080318760FFA0777080E
:1001B4000318770FFB07000103180130A007F10DA6
:1001C4000730FC00710DF80DF90DFA0DFB0DA00DB3
:1001D4007408711CFF28F8027508031C750FF902D6
:1001E4007608031C760FFA027708031C770FFB02CC
:1001F4000001031C0130A0021029F8077508031838
:10020400750FF90776080318760FFA0777080318AD
:10021400770FFB07000103180130A007F10DFC0B59
:10022400E428700DF80DF90DFA0DFB0DA00D7408FE
:10023400711C2E29F8027508031C750FF902760843
:10024400031C760FFA027708031C770FFB020001E8
:10025400031C0130A0023F29F80775080318750F25
:10026400F90776080318760FFA0777080318770F4B
:10027400FB07000103180130A007F00D0730FC0054
:10028400700DF80DF90DFA0DFB0DA00D7408701C1E
:100294005D29F8027508031C750FF9027608031C22
:1002A400760FFA027708031C770FFB020001031C88
:1002B4000130A0026E29F80775080318750FF907B5
:1002C40076080318760FFA0777080318770FFB07E9
:1002D400000103180130A007F00DFC0B422970182F
:1002E40081297408F80775080318750FF90776084B
:1002F4000318760FFA0777080318770FFB0708002F
:1003040003208A110A128000840AA20A0319A30A8C
:08031400F003031D822908001B
:10031C001F30831603131105F000031996298E293B
:10032C00141D992996299114911C9D299A2908002C
:10033C008316031387150716940128308312940033
:10034C008316910183122508F4002608F50027086E
:10035C00F6002808F700F40DF50DF60DF70D7410E6
:10036C00F40DF50DF60DF70D74100030F00024307F
:10037C00F100F430F2000030F3000A207003831611
:08038C0093008312941608008F
:100394001F30831603131105F0000319D229CA294B
:1003A400141DD529D229911583161418DD29553029
:1003B40083128800D62983121308F1002508003A15
:1003C400031DE72983169116E92983169112111644
:0C03D400111EED29EA297108F000080054
:0E03E000831603131114111CF629F3290800CB
:1003EE00831203138C11250893008C19FF29FC2905
:1003FE008C118316111F052AF001072A0130F00017
:02040E000800E4
:0E041000831603131115111D0E2A0B2A080066
:10041E0083120313A1018316880183128801A03071
:10042E00A5008630A6000130A7000030A8009E214E
:10043E00A1012108323C031C412AF021A030831275
:10044E00A500F721831203132108A500F7218312BB
:10045E0003132108A500F72108223430FC00F130E7
:10046E00FD00FD0B382AFC0B382A00000000831219
:10047E00A10A202AA1012108323C031C702AF02176
:10048E00A0308312A500F721831203132108A500C3
:10049E00F7218E21A1308312A500F72183120313B9
:1004AE00A501CA2170088312A40008228312240811
:1004BE0088000D30FB002D30FC00D730FD00FD0B09
:1004CE00662AFC0B662AFB0B662A00000000A10AB6
:0404DE00422A702A14
:04400E00F22F000786
:00000001FF
